{
  "contractName": "Mendables",
  "abi": [
    {
      "inputs": [
        {
          "internalType": "string",
          "name": "_contractMetadata",
          "type": "string"
        },
        {
          "internalType": "string",
          "name": "_defaultImageURI",
          "type": "string"
        },
        {
          "internalType": "string",
          "name": "_uiURI",
          "type": "string"
        },
        {
          "internalType": "string",
          "name": "_desc",
          "type": "string"
        }
      ],
      "stateMutability": "nonpayable",
      "type": "constructor"
    },
    {
      "anonymous": false,
      "inputs": [
        {
          "indexed": true,
          "internalType": "address",
          "name": "owner",
          "type": "address"
        },
        {
          "indexed": true,
          "internalType": "address",
          "name": "approved",
          "type": "address"
        },
        {
          "indexed": true,
          "internalType": "uint256",
          "name": "tokenId",
          "type": "uint256"
        }
      ],
      "name": "Approval",
      "type": "event"
    },
    {
      "anonymous": false,
      "inputs": [
        {
          "indexed": true,
          "internalType": "address",
          "name": "owner",
          "type": "address"
        },
        {
          "indexed": true,
          "internalType": "address",
          "name": "operator",
          "type": "address"
        },
        {
          "indexed": false,
          "internalType": "bool",
          "name": "approved",
          "type": "bool"
        }
      ],
      "name": "ApprovalForAll",
      "type": "event"
    },
    {
      "anonymous": false,
      "inputs": [
        {
          "indexed": true,
          "internalType": "address",
          "name": "from",
          "type": "address"
        },
        {
          "indexed": true,
          "internalType": "address",
          "name": "to",
          "type": "address"
        },
        {
          "indexed": true,
          "internalType": "uint256",
          "name": "tokenId",
          "type": "uint256"
        }
      ],
      "name": "Transfer",
      "type": "event"
    },
    {
      "inputs": [
        {
          "internalType": "address",
          "name": "to",
          "type": "address"
        },
        {
          "internalType": "uint256",
          "name": "tokenId",
          "type": "uint256"
        }
      ],
      "name": "approve",
      "outputs": [],
      "stateMutability": "nonpayable",
      "type": "function"
    },
    {
      "inputs": [
        {
          "internalType": "address",
          "name": "owner",
          "type": "address"
        }
      ],
      "name": "balanceOf",
      "outputs": [
        {
          "internalType": "uint256",
          "name": "",
          "type": "uint256"
        }
      ],
      "stateMutability": "view",
      "type": "function",
      "constant": true
    },
    {
      "inputs": [],
      "name": "baseCost",
      "outputs": [
        {
          "internalType": "uint256",
          "name": "",
          "type": "uint256"
        }
      ],
      "stateMutability": "view",
      "type": "function",
      "constant": true
    },
    {
      "inputs": [],
      "name": "contractMetadata",
      "outputs": [
        {
          "internalType": "string",
          "name": "",
          "type": "string"
        }
      ],
      "stateMutability": "view",
      "type": "function",
      "constant": true
    },
    {
      "inputs": [],
      "name": "defaultImageURI",
      "outputs": [
        {
          "internalType": "string",
          "name": "",
          "type": "string"
        }
      ],
      "stateMutability": "view",
      "type": "function",
      "constant": true
    },
    {
      "inputs": [
        {
          "internalType": "uint256",
          "name": "tokenId",
          "type": "uint256"
        }
      ],
      "name": "getApproved",
      "outputs": [
        {
          "internalType": "address",
          "name": "",
          "type": "address"
        }
      ],
      "stateMutability": "view",
      "type": "function",
      "constant": true
    },
    {
      "inputs": [
        {
          "internalType": "address",
          "name": "owner",
          "type": "address"
        },
        {
          "internalType": "address",
          "name": "operator",
          "type": "address"
        }
      ],
      "name": "isApprovedForAll",
      "outputs": [
        {
          "internalType": "bool",
          "name": "",
          "type": "bool"
        }
      ],
      "stateMutability": "view",
      "type": "function",
      "constant": true
    },
    {
      "inputs": [],
      "name": "maxMintsInOne",
      "outputs": [
        {
          "internalType": "uint256",
          "name": "",
          "type": "uint256"
        }
      ],
      "stateMutability": "view",
      "type": "function",
      "constant": true
    },
    {
      "inputs": [],
      "name": "maxSupply",
      "outputs": [
        {
          "internalType": "uint256",
          "name": "",
          "type": "uint256"
        }
      ],
      "stateMutability": "view",
      "type": "function",
      "constant": true
    },
    {
      "inputs": [
        {
          "internalType": "uint256",
          "name": "",
          "type": "uint256"
        }
      ],
      "name": "mendables",
      "outputs": [
        {
          "internalType": "string",
          "name": "imageURI",
          "type": "string"
        },
        {
          "internalType": "string",
          "name": "caption",
          "type": "string"
        },
        {
          "internalType": "string",
          "name": "category",
          "type": "string"
        },
        {
          "internalType": "string",
          "name": "referenceURI",
          "type": "string"
        },
        {
          "internalType": "string",
          "name": "referenceName",
          "type": "string"
        },
        {
          "internalType": "uint256",
          "name": "expressions",
          "type": "uint256"
        },
        {
          "internalType": "uint256",
          "name": "edits",
          "type": "uint256"
        }
      ],
      "stateMutability": "view",
      "type": "function",
      "constant": true
    },
    {
      "inputs": [],
      "name": "name",
      "outputs": [
        {
          "internalType": "string",
          "name": "",
          "type": "string"
        }
      ],
      "stateMutability": "view",
      "type": "function",
      "constant": true
    },
    {
      "inputs": [],
      "name": "osdescription",
      "outputs": [
        {
          "internalType": "string",
          "name": "",
          "type": "string"
        }
      ],
      "stateMutability": "view",
      "type": "function",
      "constant": true
    },
    {
      "inputs": [],
      "name": "owner",
      "outputs": [
        {
          "internalType": "address",
          "name": "",
          "type": "address"
        }
      ],
      "stateMutability": "view",
      "type": "function",
      "constant": true
    },
    {
      "inputs": [
        {
          "internalType": "uint256",
          "name": "tokenId",
          "type": "uint256"
        }
      ],
      "name": "ownerOf",
      "outputs": [
        {
          "internalType": "address",
          "name": "",
          "type": "address"
        }
      ],
      "stateMutability": "view",
      "type": "function",
      "constant": true
    },
    {
      "inputs": [
        {
          "internalType": "address",
          "name": "from",
          "type": "address"
        },
        {
          "internalType": "address",
          "name": "to",
          "type": "address"
        },
        {
          "internalType": "uint256",
          "name": "tokenId",
          "type": "uint256"
        }
      ],
      "name": "safeTransferFrom",
      "outputs": [],
      "stateMutability": "nonpayable",
      "type": "function"
    },
    {
      "inputs": [
        {
          "internalType": "address",
          "name": "from",
          "type": "address"
        },
        {
          "internalType": "address",
          "name": "to",
          "type": "address"
        },
        {
          "internalType": "uint256",
          "name": "tokenId",
          "type": "uint256"
        },
        {
          "internalType": "bytes",
          "name": "_data",
          "type": "bytes"
        }
      ],
      "name": "safeTransferFrom",
      "outputs": [],
      "stateMutability": "nonpayable",
      "type": "function"
    },
    {
      "inputs": [],
      "name": "salePaused",
      "outputs": [
        {
          "internalType": "bool",
          "name": "",
          "type": "bool"
        }
      ],
      "stateMutability": "view",
      "type": "function",
      "constant": true
    },
    {
      "inputs": [
        {
          "internalType": "address",
          "name": "operator",
          "type": "address"
        },
        {
          "internalType": "bool",
          "name": "approved",
          "type": "bool"
        }
      ],
      "name": "setApprovalForAll",
      "outputs": [],
      "stateMutability": "nonpayable",
      "type": "function"
    },
    {
      "inputs": [
        {
          "internalType": "bytes4",
          "name": "interfaceId",
          "type": "bytes4"
        }
      ],
      "name": "supportsInterface",
      "outputs": [
        {
          "internalType": "bool",
          "name": "",
          "type": "bool"
        }
      ],
      "stateMutability": "view",
      "type": "function",
      "constant": true
    },
    {
      "inputs": [],
      "name": "symbol",
      "outputs": [
        {
          "internalType": "string",
          "name": "",
          "type": "string"
        }
      ],
      "stateMutability": "view",
      "type": "function",
      "constant": true
    },
    {
      "inputs": [
        {
          "internalType": "uint256",
          "name": "index",
          "type": "uint256"
        }
      ],
      "name": "tokenByIndex",
      "outputs": [
        {
          "internalType": "uint256",
          "name": "",
          "type": "uint256"
        }
      ],
      "stateMutability": "view",
      "type": "function",
      "constant": true
    },
    {
      "inputs": [
        {
          "internalType": "address",
          "name": "owner",
          "type": "address"
        },
        {
          "internalType": "uint256",
          "name": "index",
          "type": "uint256"
        }
      ],
      "name": "tokenOfOwnerByIndex",
      "outputs": [
        {
          "internalType": "uint256",
          "name": "",
          "type": "uint256"
        }
      ],
      "stateMutability": "view",
      "type": "function",
      "constant": true
    },
    {
      "inputs": [],
      "name": "totalSupply",
      "outputs": [
        {
          "internalType": "uint256",
          "name": "",
          "type": "uint256"
        }
      ],
      "stateMutability": "view",
      "type": "function",
      "constant": true
    },
    {
      "inputs": [
        {
          "internalType": "address",
          "name": "from",
          "type": "address"
        },
        {
          "internalType": "address",
          "name": "to",
          "type": "address"
        },
        {
          "internalType": "uint256",
          "name": "tokenId",
          "type": "uint256"
        }
      ],
      "name": "transferFrom",
      "outputs": [],
      "stateMutability": "nonpayable",
      "type": "function"
    },
    {
      "inputs": [],
      "name": "uiURI",
      "outputs": [
        {
          "internalType": "string",
          "name": "",
          "type": "string"
        }
      ],
      "stateMutability": "view",
      "type": "function",
      "constant": true
    },
    {
      "inputs": [],
      "name": "updateCost",
      "outputs": [
        {
          "internalType": "uint256",
          "name": "",
          "type": "uint256"
        }
      ],
      "stateMutability": "view",
      "type": "function",
      "constant": true
    },
    {
      "inputs": [
        {
          "internalType": "uint256",
          "name": "tokenId",
          "type": "uint256"
        }
      ],
      "name": "express",
      "outputs": [],
      "stateMutability": "nonpayable",
      "type": "function"
    },
    {
      "inputs": [
        {
          "internalType": "uint256",
          "name": "tokenId",
          "type": "uint256"
        }
      ],
      "name": "expressed",
      "outputs": [
        {
          "internalType": "bool",
          "name": "",
          "type": "bool"
        }
      ],
      "stateMutability": "view",
      "type": "function",
      "constant": true
    },
    {
      "inputs": [
        {
          "internalType": "uint256",
          "name": "_mintAmount",
          "type": "uint256"
        }
      ],
      "name": "mint",
      "outputs": [],
      "stateMutability": "payable",
      "type": "function",
      "payable": true
    },
    {
      "inputs": [
        {
          "internalType": "address",
          "name": "to",
          "type": "address"
        },
        {
          "components": [
            {
              "internalType": "string",
              "name": "imageURI",
              "type": "string"
            },
            {
              "internalType": "string",
              "name": "caption",
              "type": "string"
            },
            {
              "internalType": "string",
              "name": "category",
              "type": "string"
            },
            {
              "internalType": "string",
              "name": "referenceURI",
              "type": "string"
            },
            {
              "internalType": "string",
              "name": "referenceName",
              "type": "string"
            }
          ],
          "internalType": "struct Mendables.MendableInput",
          "name": "mend",
          "type": "tuple"
        }
      ],
      "name": "personalizeMint",
      "outputs": [],
      "stateMutability": "payable",
      "type": "function",
      "payable": true
    },
    {
      "inputs": [
        {
          "internalType": "address",
          "name": "to",
          "type": "address"
        },
        {
          "internalType": "uint256",
          "name": "_mintAmount",
          "type": "uint256"
        }
      ],
      "name": "airdrop",
      "outputs": [],
      "stateMutability": "nonpayable",
      "type": "function"
    },
    {
      "inputs": [
        {
          "internalType": "uint256",
          "name": "id",
          "type": "uint256"
        },
        {
          "components": [
            {
              "internalType": "string",
              "name": "imageURI",
              "type": "string"
            },
            {
              "internalType": "string",
              "name": "caption",
              "type": "string"
            },
            {
              "internalType": "string",
              "name": "category",
              "type": "string"
            },
            {
              "internalType": "string",
              "name": "referenceURI",
              "type": "string"
            },
            {
              "internalType": "string",
              "name": "referenceName",
              "type": "string"
            }
          ],
          "internalType": "struct Mendables.MendableInput",
          "name": "mend",
          "type": "tuple"
        }
      ],
      "name": "updateMendable",
      "outputs": [],
      "stateMutability": "payable",
      "type": "function",
      "payable": true
    },
    {
      "inputs": [
        {
          "internalType": "uint256",
          "name": "tokenId",
          "type": "uint256"
        }
      ],
      "name": "genTokenURI",
      "outputs": [
        {
          "internalType": "string",
          "name": "",
          "type": "string"
        }
      ],
      "stateMutability": "view",
      "type": "function",
      "constant": true
    },
    {
      "inputs": [
        {
          "internalType": "uint256",
          "name": "tokenId",
          "type": "uint256"
        }
      ],
      "name": "tokenURI",
      "outputs": [
        {
          "internalType": "string",
          "name": "",
          "type": "string"
        }
      ],
      "stateMutability": "view",
      "type": "function",
      "constant": true
    },
    {
      "inputs": [],
      "name": "contractURI",
      "outputs": [
        {
          "internalType": "string",
          "name": "",
          "type": "string"
        }
      ],
      "stateMutability": "view",
      "type": "function",
      "constant": true
    },
    {
      "inputs": [
        {
          "internalType": "bool",
          "name": "_state",
          "type": "bool"
        }
      ],
      "name": "pauseSale",
      "outputs": [],
      "stateMutability": "nonpayable",
      "type": "function"
    },
    {
      "inputs": [
        {
          "internalType": "string",
          "name": "_uri",
          "type": "string"
        }
      ],
      "name": "setDefaultImage",
      "outputs": [],
      "stateMutability": "nonpayable",
      "type": "function"
    },
    {
      "inputs": [
        {
          "internalType": "string",
          "name": "_uri",
          "type": "string"
        }
      ],
      "name": "setInterfaceURI",
      "outputs": [],
      "stateMutability": "nonpayable",
      "type": "function"
    },
    {
      "inputs": [
        {
          "internalType": "string",
          "name": "_uri",
          "type": "string"
        }
      ],
      "name": "setContractURI",
      "outputs": [],
      "stateMutability": "nonpayable",
      "type": "function"
    },
    {
      "inputs": [
        {
          "internalType": "string",
          "name": "_d",
          "type": "string"
        }
      ],
      "name": "setDescription",
      "outputs": [],
      "stateMutability": "nonpayable",
      "type": "function"
    },
    {
      "inputs": [
        {
          "internalType": "uint256",
          "name": "_newCost",
          "type": "uint256"
        }
      ],
      "name": "setBaseCost",
      "outputs": [],
      "stateMutability": "nonpayable",
      "type": "function"
    },
    {
      "inputs": [
        {
          "internalType": "uint256",
          "name": "_newCost",
          "type": "uint256"
        }
      ],
      "name": "setUpdateCost",
      "outputs": [],
      "stateMutability": "nonpayable",
      "type": "function"
    },
    {
      "inputs": [],
      "name": "withdraw",
      "outputs": [],
      "stateMutability": "nonpayable",
      "type": "function"
    }
  ],
  "bytecode": "0x6080604052610539600a55666a94d74f430000600b55662386f26fc10000600c556005600d556001600e60006101000a81548160ff021916908315150217905550604051806020016040528060008152506015908051906020019062000067929190620001ea565b503480156200007557600080fd5b50604051620064813803806200648183398181016040528101906200009b919062000437565b6040518060400160405280600981526020017f4d656e6461626c657300000000000000000000000000000000000000000000008152506040518060400160405280600481526020017f4d454e440000000000000000000000000000000000000000000000000000000081525081600090805190602001906200011f929190620001ea565b50806001908051906020019062000138929190620001ea565b50505033601160006101000a81548173ffffffffffffffffffffffffffffffffffffffff021916908373ffffffffffffffffffffffffffffffffffffffff160217905550836012908051906020019062000194929190620001ea565b508260109080519060200190620001ad929190620001ea565b5081600f9080519060200190620001c6929190620001ea565b508060139080519060200190620001df929190620001ea565b50505050506200058a565b828054620001f89062000554565b90600052602060002090601f0160209004810192826200021c576000855562000268565b82601f106200023757805160ff191683800117855562000268565b8280016001018555821562000268579182015b82811115620002675782518255916020019190600101906200024a565b5b5090506200027791906200027b565b5090565b5b80821115620002965760008160009055506001016200027c565b5090565b6000604051905090565b600080fd5b600080fd5b600080fd5b600080fd5b6000601f19601f8301169050919050565b7f4e487b7100000000000000000000000000000000000000000000000000000000600052604160045260246000fd5b6200030382620002b8565b810181811067ffffffffffffffff82111715620003255762000324620002c9565b5b80604052505050565b60006200033a6200029a565b9050620003488282620002f8565b919050565b600067ffffffffffffffff8211156200036b576200036a620002c9565b5b6200037682620002b8565b9050602081019050919050565b60005b83811015620003a357808201518184015260208101905062000386565b83811115620003b3576000848401525b50505050565b6000620003d0620003ca846200034d565b6200032e565b905082815260208101848484011115620003ef57620003ee620002b3565b5b620003fc84828562000383565b509392505050565b600082601f8301126200041c576200041b620002ae565b5b81516200042e848260208601620003b9565b91505092915050565b60008060008060808587031215620004545762000453620002a4565b5b600085015167ffffffffffffffff811115620004755762000474620002a9565b5b620004838782880162000404565b945050602085015167ffffffffffffffff811115620004a757620004a6620002a9565b5b620004b58782880162000404565b935050604085015167ffffffffffffffff811115620004d957620004d8620002a9565b5b620004e78782880162000404565b925050606085015167ffffffffffffffff8111156200050b576200050a620002a9565b5b620005198782880162000404565b91505092959194509250565b7f4e487b7100000000000000000000000000000000000000000000000000000000600052602260045260246000fd5b600060028204905060018216806200056d57607f821691505b6020821081141562000584576200058362000525565b5b50919050565b615ee7806200059a6000396000f3fe60806040526004361061025c5760003560e01c80638ba4cc3c11610144578063a76b4d56116100b6578063c4dc6d511161007a578063c4dc6d51146108e3578063c7af3dd11461090e578063c87b56dd14610939578063d5abeb0114610976578063e8a3d485146109a1578063e985e9c5146109cc5761025c565b8063a76b4d5614610800578063b23817ea1461082b578063b7838f1d14610868578063b88d4fde14610891578063b93f16ea146108ba5761025c565b806394bcfcc61161010857806394bcfcc61461070857806395d89b41146107315780639ce9857e1461075c578063a0712d6814610778578063a22cb46514610794578063a6813e32146107bd5761025c565b80638ba4cc3c146106375780638da5cb5b1461066057806390c3f38f1461068b57806393822557146106b4578063938e3d7b146106df5761025c565b80632f745c59116101dd5780634f6ccce7116101a15780634f6ccce7146104ff578063563337381461053c5780635d08c1ae146105675780635fdcfb53146105925780636352211e146105bd57806370a08231146105fa5761025c565b80632f745c591461042e57806336fcf48c1461046b5780633ccfd60b1461049657806342842e0e146104ad57806343b2b44a146104d65761025c565b80630cade062116102245780630cade0621461034b5780630cfed2a21461038857806318160ddd146103b157806323b872dd146103dc5780632b5dc91f146104055761025c565b806301ffc9a714610261578063041bcdd11461029e57806306fdde03146102ba578063081812fc146102e5578063095ea7b314610322575b600080fd5b34801561026d57600080fd5b5061028860048036038101906102839190613e68565b610a09565b6040516102959190613eb0565b60405180910390f35b6102b860048036038101906102b39190614169565b610a83565b005b3480156102c657600080fd5b506102cf610ba7565b6040516102dc919061424d565b60405180910390f35b3480156102f157600080fd5b5061030c6004803603810190610307919061426f565b610c39565b60405161031991906142dd565b60405180910390f35b34801561032e57600080fd5b5061034960048036038101906103449190614324565b610cbe565b005b34801561035757600080fd5b50610372600480360381019061036d919061426f565b610dd6565b60405161037f919061424d565b60405180910390f35b34801561039457600080fd5b506103af60048036038101906103aa9190614390565b610f9c565b005b3480156103bd57600080fd5b506103c661104e565b6040516103d391906143cc565b60405180910390f35b3480156103e857600080fd5b5061040360048036038101906103fe91906143e7565b61105b565b005b34801561041157600080fd5b5061042c6004803603810190610427919061426f565b6110bb565b005b34801561043a57600080fd5b5061045560048036038101906104509190614324565b61115a565b60405161046291906143cc565b60405180910390f35b34801561047757600080fd5b506104806111ff565b60405161048d919061424d565b60405180910390f35b3480156104a257600080fd5b506104ab61128d565b005b3480156104b957600080fd5b506104d460048036038101906104cf91906143e7565b61138d565b005b3480156104e257600080fd5b506104fd60048036038101906104f8919061426f565b6113ad565b005b34801561050b57600080fd5b506105266004803603810190610521919061426f565b6115d6565b60405161053391906143cc565b60405180910390f35b34801561054857600080fd5b50610551611647565b60405161055e919061424d565b60405180910390f35b34801561057357600080fd5b5061057c6116d5565b6040516105899190613eb0565b60405180910390f35b34801561059e57600080fd5b506105a76116e8565b6040516105b491906143cc565b60405180910390f35b3480156105c957600080fd5b506105e460048036038101906105df919061426f565b6116ee565b6040516105f191906142dd565b60405180910390f35b34801561060657600080fd5b50610621600480360381019061061c919061443a565b6117a0565b60405161062e91906143cc565b60405180910390f35b34801561064357600080fd5b5061065e60048036038101906106599190614324565b611858565b005b34801561066c57600080fd5b50610675611997565b60405161068291906142dd565b60405180910390f35b34801561069757600080fd5b506106b260048036038101906106ad9190614467565b6119bd565b005b3480156106c057600080fd5b506106c9611a6c565b6040516106d691906143cc565b60405180910390f35b3480156106eb57600080fd5b5061070660048036038101906107019190614467565b611a72565b005b34801561071457600080fd5b5061072f600480360381019061072a9190614467565b611b21565b005b34801561073d57600080fd5b50610746611bd0565b604051610753919061424d565b60405180910390f35b610776600480360381019061077191906144b0565b611c62565b005b610792600480360381019061078d919061426f565b611de4565b005b3480156107a057600080fd5b506107bb60048036038101906107b6919061450c565b611fdd565b005b3480156107c957600080fd5b506107e460048036038101906107df919061426f565b611ff3565b6040516107f7979695949392919061454c565b60405180910390f35b34801561080c57600080fd5b506108156122dd565b604051610822919061424d565b60405180910390f35b34801561083757600080fd5b50610852600480360381019061084d919061426f565b61236b565b60405161085f9190613eb0565b60405180910390f35b34801561087457600080fd5b5061088f600480360381019061088a9190614467565b612424565b005b34801561089d57600080fd5b506108b860048036038101906108b3919061467f565b6124d3565b005b3480156108c657600080fd5b506108e160048036038101906108dc919061426f565b612535565b005b3480156108ef57600080fd5b506108f86125d4565b604051610905919061424d565b60405180910390f35b34801561091a57600080fd5b50610923612662565b60405161093091906143cc565b60405180910390f35b34801561094557600080fd5b50610960600480360381019061095b919061426f565b612668565b60405161096d919061424d565b60405180910390f35b34801561098257600080fd5b5061098b6126c2565b60405161099891906143cc565b60405180910390f35b3480156109ad57600080fd5b506109b66126c8565b6040516109c3919061424d565b60405180910390f35b3480156109d857600080fd5b506109f360048036038101906109ee9190614702565b61275a565b604051610a009190613eb0565b60405180910390f35b60007f780e9d63000000000000000000000000000000000000000000000000000000007bffffffffffffffffffffffffffffffffffffffffffffffffffffffff1916827bffffffffffffffffffffffffffffffffffffffffffffffffffffffff19161480610a7c5750610a7b826127ee565b5b9050919050565b3373ffffffffffffffffffffffffffffffffffffffff16610aa3836116ee565b73ffffffffffffffffffffffffffffffffffffffff161480610b125750601160009054906101000a900473ffffffffffffffffffffffffffffffffffffffff1673ffffffffffffffffffffffffffffffffffffffff163373ffffffffffffffffffffffffffffffffffffffff16145b610b51576040517f08c379a0000000000000000000000000000000000000000000000000000000008152600401610b489061478e565b60405180910390fd5b600c54341015610b96576040517f08c379a0000000000000000000000000000000000000000000000000000000008152600401610b8d906147fa565b60405180910390fd5b610ba2828260016128d0565b505050565b606060008054610bb690614849565b80601f0160208091040260200160405190810160405280929190818152602001828054610be290614849565b8015610c2f5780601f10610c0457610100808354040283529160200191610c2f565b820191906000526020600020905b815481529060010190602001808311610c1257829003601f168201915b5050505050905090565b6000610c4482612b99565b610c83576040517f08c379a0000000000000000000000000000000000000000000000000000000008152600401610c7a906148ed565b60405180910390fd5b6004600083815260200190815260200160002060009054906101000a900473ffffffffffffffffffffffffffffffffffffffff169050919050565b6000610cc9826116ee565b90508073ffffffffffffffffffffffffffffffffffffffff168373ffffffffffffffffffffffffffffffffffffffff161415610d3a576040517f08c379a0000000000000000000000000000000000000000000000000000000008152600401610d319061497f565b60405180910390fd5b8073ffffffffffffffffffffffffffffffffffffffff16610d59612c05565b73ffffffffffffffffffffffffffffffffffffffff161480610d885750610d8781610d82612c05565b61275a565b5b610dc7576040517f08c379a0000000000000000000000000000000000000000000000000000000008152600401610dbe90614a11565b60405180910390fd5b610dd18383612c0d565b505050565b6060600080601460008581526020019081526020016000206000018054610dfc90614849565b905014610e1e5760146000848152602001908152602001600020600001610e21565b60105b8054610e2c90614849565b80601f0160208091040260200160405190810160405280929190818152602001828054610e5890614849565b8015610ea55780601f10610e7a57610100808354040283529160200191610ea5565b820191906000526020600020905b815481529060010190602001808311610e8857829003601f168201915b50505050509050600060146000858152602001908152602001600020600601549050610f74610ed385612cc6565b604051602001610ee39190614ab9565b60405160208183030381529060405260146000878152602001908152602001600020600201610f1184612cc6565b610f1c600a54612cc6565b601387600f610f2a8c612cc6565b604051602001610f3b929190614bbb565b604051602081830303815290604052604051602001610f609796959493929190614f2e565b604051602081830303815290604052612e27565b604051602001610f84919061504d565b60405160208183030381529060405292505050919050565b601160009054906101000a900473ffffffffffffffffffffffffffffffffffffffff1673ffffffffffffffffffffffffffffffffffffffff163373ffffffffffffffffffffffffffffffffffffffff1614601590611030576040517f08c379a000000000000000000000000000000000000000000000000000000000815260040161102791906150ef565b60405180910390fd5b5080600e60006101000a81548160ff02191690831515021790555050565b6000600880549050905090565b61106c611066612c05565b82612fa0565b6110ab576040517f08c379a00000000000000000000000000000000000000000000000000000000081526004016110a290615183565b60405180910390fd5b6110b683838361307e565b505050565b601160009054906101000a900473ffffffffffffffffffffffffffffffffffffffff1673ffffffffffffffffffffffffffffffffffffffff163373ffffffffffffffffffffffffffffffffffffffff161460159061114f576040517f08c379a000000000000000000000000000000000000000000000000000000000815260040161114691906150ef565b60405180910390fd5b5080600b8190555050565b6000611165836117a0565b82106111a6576040517f08c379a000000000000000000000000000000000000000000000000000000000815260040161119d90615215565b60405180910390fd5b600660008473ffffffffffffffffffffffffffffffffffffffff1673ffffffffffffffffffffffffffffffffffffffff168152602001908152602001600020600083815260200190815260200160002054905092915050565b600f805461120c90614849565b80601f016020809104026020016040519081016040528092919081815260200182805461123890614849565b80156112855780601f1061125a57610100808354040283529160200191611285565b820191906000526020600020905b81548152906001019060200180831161126857829003601f168201915b505050505081565b601160009054906101000a900473ffffffffffffffffffffffffffffffffffffffff1673ffffffffffffffffffffffffffffffffffffffff163373ffffffffffffffffffffffffffffffffffffffff1614601590611321576040517f08c379a000000000000000000000000000000000000000000000000000000000815260040161131891906150ef565b60405180910390fd5b50601160009054906101000a900473ffffffffffffffffffffffffffffffffffffffff1673ffffffffffffffffffffffffffffffffffffffff166108fc479081150290604051600060405180830381858888f1935050505015801561138a573d6000803e3d6000fd5b50565b6113a8838383604051806020016040528060008152506124d3565b505050565b60006113b8336117a0565b9050600081116113fd576040517f08c379a00000000000000000000000000000000000000000000000000000000081526004016113f490615281565b60405180910390fd5b60006001601460008581526020019081526020016000206007015461142291906152d0565b9050600081836114329190615326565b905060006014600086815260200190815260200160002060050160003373ffffffffffffffffffffffffffffffffffffffff1673ffffffffffffffffffffffffffffffffffffffff1681526020019081526020016000205490506000838261149a91906153af565b9050828214156114df576040517f08c379a00000000000000000000000000000000000000000000000000000000081526004016114d69061542c565b60405180910390fd5b826014600088815260200190815260200160002060050160003373ffffffffffffffffffffffffffffffffffffffff1673ffffffffffffffffffffffffffffffffffffffff16815260200190815260200160002081905550806014600088815260200190815260200160002060060154106115a05784816014600089815260200190815260200160002060060154611577919061544c565b61158191906152d0565b60146000888152602001908152602001600020600601819055506115ce565b846014600088815260200190815260200160002060060160008282546115c691906152d0565b925050819055505b505050505050565b60006115e061104e565b8210611621576040517f08c379a0000000000000000000000000000000000000000000000000000000008152600401611618906154f2565b60405180910390fd5b6008828154811061163557611634615512565b5b90600052602060002001549050919050565b6010805461165490614849565b80601f016020809104026020016040519081016040528092919081815260200182805461168090614849565b80156116cd5780601f106116a2576101008083540402835291602001916116cd565b820191906000526020600020905b8154815290600101906020018083116116b057829003601f168201915b505050505081565b600e60009054906101000a900460ff1681565b600d5481565b6000806002600084815260200190815260200160002060009054906101000a900473ffffffffffffffffffffffffffffffffffffffff169050600073ffffffffffffffffffffffffffffffffffffffff168173ffffffffffffffffffffffffffffffffffffffff161415611797576040517f08c379a000000000000000000000000000000000000000000000000000000000815260040161178e906155b3565b60405180910390fd5b80915050919050565b60008073ffffffffffffffffffffffffffffffffffffffff168273ffffffffffffffffffffffffffffffffffffffff161415611811576040517f08c379a000000000000000000000000000000000000000000000000000000000815260040161180890615645565b60405180910390fd5b600360008373ffffffffffffffffffffffffffffffffffffffff1673ffffffffffffffffffffffffffffffffffffffff168152602001908152602001600020549050919050565b601160009054906101000a900473ffffffffffffffffffffffffffffffffffffffff1673ffffffffffffffffffffffffffffffffffffffff163373ffffffffffffffffffffffffffffffffffffffff16146118e8576040517f08c379a00000000000000000000000000000000000000000000000000000000081526004016118df9061478e565b60405180910390fd5b6000811161192b576040517f08c379a0000000000000000000000000000000000000000000000000000000008152600401611922906156b1565b60405180910390fd5b600061193561104e565b9050600a54828261194691906152d0565b1115611987576040517f08c379a000000000000000000000000000000000000000000000000000000000815260040161197e9061571d565b60405180910390fd5b6119928383836132da565b505050565b601160009054906101000a900473ffffffffffffffffffffffffffffffffffffffff1681565b601160009054906101000a900473ffffffffffffffffffffffffffffffffffffffff1673ffffffffffffffffffffffffffffffffffffffff163373ffffffffffffffffffffffffffffffffffffffff1614601590611a51576040517f08c379a0000000000000000000000000000000000000000000000000000000008152600401611a4891906150ef565b60405180910390fd5b508060139080519060200190611a68929190613d59565b5050565b600b5481565b601160009054906101000a900473ffffffffffffffffffffffffffffffffffffffff1673ffffffffffffffffffffffffffffffffffffffff163373ffffffffffffffffffffffffffffffffffffffff1614601590611b06576040517f08c379a0000000000000000000000000000000000000000000000000000000008152600401611afd91906150ef565b60405180910390fd5b508060129080519060200190611b1d929190613d59565b5050565b601160009054906101000a900473ffffffffffffffffffffffffffffffffffffffff1673ffffffffffffffffffffffffffffffffffffffff163373ffffffffffffffffffffffffffffffffffffffff1614601590611bb5576040517f08c379a0000000000000000000000000000000000000000000000000000000008152600401611bac91906150ef565b60405180910390fd5b5080600f9080519060200190611bcc929190613d59565b5050565b606060018054611bdf90614849565b80601f0160208091040260200160405190810160405280929190818152602001828054611c0b90614849565b8015611c585780601f10611c2d57610100808354040283529160200191611c58565b820191906000526020600020905b815481529060010190602001808311611c3b57829003601f168201915b5050505050905090565b6000600b549050601160009054906101000a900473ffffffffffffffffffffffffffffffffffffffff1673ffffffffffffffffffffffffffffffffffffffff163373ffffffffffffffffffffffffffffffffffffffff161415611cc85760009050611d19565b600e60009054906101000a900460ff1615611d18576040517f08c379a0000000000000000000000000000000000000000000000000000000008152600401611d0f90615789565b60405180910390fd5b5b6000611d2361104e565b9050600a54600182611d3591906152d0565b1115611d76576040517f08c379a0000000000000000000000000000000000000000000000000000000008152600401611d6d9061571d565b60405180910390fd5b81341015611db9576040517f08c379a0000000000000000000000000000000000000000000000000000000008152600401611db0906157f5565b60405180910390fd5b611dc5846001836132da565b611ddd600182611dd591906152d0565b8460006128d0565b5050505050565b6000600b549050601160009054906101000a900473ffffffffffffffffffffffffffffffffffffffff1673ffffffffffffffffffffffffffffffffffffffff163373ffffffffffffffffffffffffffffffffffffffff161415611e4a5760009050611ee0565b600e60009054906101000a900460ff1615611e9a576040517f08c379a0000000000000000000000000000000000000000000000000000000008152600401611e9190615861565b60405180910390fd5b600d54821115611edf576040517f08c379a0000000000000000000000000000000000000000000000000000000008152600401611ed6906158a7565b60405180910390fd5b5b60008211611f23576040517f08c379a0000000000000000000000000000000000000000000000000000000008152600401611f1a906158a7565b60405180910390fd5b6000611f2d61104e565b9050600a548382611f3e91906152d0565b1115611f7f576040517f08c379a0000000000000000000000000000000000000000000000000000000008152600401611f769061571d565b60405180910390fd5b8282611f8b9190615326565b341015611fcd576040517f08c379a0000000000000000000000000000000000000000000000000000000008152600401611fc4906157f5565b60405180910390fd5b611fd83384836132da565b505050565b611fef611fe8612c05565b8383613316565b5050565b601460205280600052604060002060009150905080600001805461201690614849565b80601f016020809104026020016040519081016040528092919081815260200182805461204290614849565b801561208f5780601f106120645761010080835404028352916020019161208f565b820191906000526020600020905b81548152906001019060200180831161207257829003601f168201915b5050505050908060010180546120a490614849565b80601f01602080910402602001604051908101604052809291908181526020018280546120d090614849565b801561211d5780601f106120f25761010080835404028352916020019161211d565b820191906000526020600020905b81548152906001019060200180831161210057829003601f168201915b50505050509080600201805461213290614849565b80601f016020809104026020016040519081016040528092919081815260200182805461215e90614849565b80156121ab5780601f10612180576101008083540402835291602001916121ab565b820191906000526020600020905b81548152906001019060200180831161218e57829003601f168201915b5050505050908060030180546121c090614849565b80601f01602080910402602001604051908101604052809291908181526020018280546121ec90614849565b80156122395780601f1061220e57610100808354040283529160200191612239565b820191906000526020600020905b81548152906001019060200180831161221c57829003601f168201915b50505050509080600401805461224e90614849565b80601f016020809104026020016040519081016040528092919081815260200182805461227a90614849565b80156122c75780601f1061229c576101008083540402835291602001916122c7565b820191906000526020600020905b8154815290600101906020018083116122aa57829003601f168201915b5050505050908060060154908060070154905087565b601280546122ea90614849565b80601f016020809104026020016040519081016040528092919081815260200182805461231690614849565b80156123635780601f1061233857610100808354040283529160200191612363565b820191906000526020600020905b81548152906001019060200180831161234657829003601f168201915b505050505081565b600080612377336117a0565b90506000811115612419576000600160146000868152602001908152602001600020600701546123a791906152d0565b826123b29190615326565b905060006014600086815260200190815260200160002060050160003373ffffffffffffffffffffffffffffffffffffffff1673ffffffffffffffffffffffffffffffffffffffff168152602001908152602001600020549050818114935050505061241f565b60009150505b919050565b601160009054906101000a900473ffffffffffffffffffffffffffffffffffffffff1673ffffffffffffffffffffffffffffffffffffffff163373ffffffffffffffffffffffffffffffffffffffff16146015906124b8576040517f08c379a00000000000000000000000000000000000000000000000000000000081526004016124af91906150ef565b60405180910390fd5b5080601090805190602001906124cf929190613d59565b5050565b6124e46124de612c05565b83612fa0565b612523576040517f08c379a000000000000000000000000000000000000000000000000000000000815260040161251a90615183565b60405180910390fd5b61252f84848484613483565b50505050565b601160009054906101000a900473ffffffffffffffffffffffffffffffffffffffff1673ffffffffffffffffffffffffffffffffffffffff163373ffffffffffffffffffffffffffffffffffffffff16146015906125c9576040517f08c379a00000000000000000000000000000000000000000000000000000000081526004016125c091906150ef565b60405180910390fd5b5080600c8190555050565b601380546125e190614849565b80601f016020809104026020016040519081016040528092919081815260200182805461260d90614849565b801561265a5780601f1061262f5761010080835404028352916020019161265a565b820191906000526020600020905b81548152906001019060200180831161263d57829003601f168201915b505050505081565b600c5481565b606061267382612b99565b6126b2576040517f08c379a00000000000000000000000000000000000000000000000000000000081526004016126a990615939565b60405180910390fd5b6126bb82610dd6565b9050919050565b600a5481565b6060601280546126d790614849565b80601f016020809104026020016040519081016040528092919081815260200182805461270390614849565b80156127505780601f1061272557610100808354040283529160200191612750565b820191906000526020600020905b81548152906001019060200180831161273357829003601f168201915b5050505050905090565b6000600560008473ffffffffffffffffffffffffffffffffffffffff1673ffffffffffffffffffffffffffffffffffffffff16815260200190815260200160002060008373ffffffffffffffffffffffffffffffffffffffff1673ffffffffffffffffffffffffffffffffffffffff16815260200190815260200160002060009054906101000a900460ff16905092915050565b60007f80ac58cd000000000000000000000000000000000000000000000000000000007bffffffffffffffffffffffffffffffffffffffffffffffffffffffff1916827bffffffffffffffffffffffffffffffffffffffffffffffffffffffff191614806128b957507f5b5e139f000000000000000000000000000000000000000000000000000000007bffffffffffffffffffffffffffffffffffffffffffffffffffffffff1916827bffffffffffffffffffffffffffffffffffffffffffffffffffffffff1916145b806128c957506128c8826134df565b5b9050919050565b6000604b8360000151511061291a576040517f08c379a0000000000000000000000000000000000000000000000000000000008152600401612911906158a7565b60405180910390fd5b61011983602001515110612963576040517f08c379a000000000000000000000000000000000000000000000000000000000815260040161295a906158a7565b60405180910390fd5b6011836040015151106129ab576040517f08c379a00000000000000000000000000000000000000000000000000000000081526004016129a2906158a7565b60405180910390fd5b604b836060015151106129f3576040517f08c379a00000000000000000000000000000000000000000000000000000000081526004016129ea906158a7565b60405180910390fd5b602183608001515110612a3b576040517f08c379a0000000000000000000000000000000000000000000000000000000008152600401612a32906158a7565b60405180910390fd5b8260200151601460008681526020019081526020016000206001019080519060200190612a69929190613d59565b508260400151601460008681526020019081526020016000206002019080519060200190612a98929190613d59565b508260000151601460008681526020019081526020016000206000019080519060200190612ac7929190613d59565b508260800151601460008681526020019081526020016000206004019080519060200190612af6929190613d59565b508260600151601460008681526020019081526020016000206003019080519060200190612b25929190613d59565b506000601460008681526020019081526020016000206006018190555060008214612b725760016014600086815260200190815260200160002060070154612b6d91906152d0565b612b75565b60005b60146000868152602001908152602001600020600701819055508390509392505050565b60008073ffffffffffffffffffffffffffffffffffffffff166002600084815260200190815260200160002060009054906101000a900473ffffffffffffffffffffffffffffffffffffffff1673ffffffffffffffffffffffffffffffffffffffff1614159050919050565b600033905090565b816004600083815260200190815260200160002060006101000a81548173ffffffffffffffffffffffffffffffffffffffff021916908373ffffffffffffffffffffffffffffffffffffffff160217905550808273ffffffffffffffffffffffffffffffffffffffff16612c80836116ee565b73ffffffffffffffffffffffffffffffffffffffff167f8c5be1e5ebec7d5bd14f71427d1e84f3dd0314c0f7b2291e5b200ac8c7c3b92560405160405180910390a45050565b60606000821415612d0e576040518060400160405280600181526020017f30000000000000000000000000000000000000000000000000000000000000008152509050612e22565b600082905060005b60008214612d40578080612d2990615959565b915050600a82612d3991906153af565b9150612d16565b60008167ffffffffffffffff811115612d5c57612d5b613f17565b5b6040519080825280601f01601f191660200182016040528015612d8e5781602001600182028036833780820191505090505b5090505b60008514612e1b57600182612da7919061544c565b9150600a85612db691906159a2565b6030612dc291906152d0565b60f81b818381518110612dd857612dd7615512565b5b60200101907effffffffffffffffffffffffffffffffffffffffffffffffffffffffffffff1916908160001a905350600a85612e1491906153af565b9450612d92565b8093505050505b919050565b6060600082511415612e4a57604051806020016040528060008152509050612f9b565b6000604051806060016040528060408152602001615e726040913990506000600360028551612e7991906152d0565b612e8391906153af565b6004612e8f9190615326565b90506000602082612ea091906152d0565b67ffffffffffffffff811115612eb957612eb8613f17565b5b6040519080825280601f01601f191660200182016040528015612eeb5781602001600182028036833780820191505090505b509050818152600183018586518101602084015b81831015612f5a576003830192508251603f8160121c168501518253600182019150603f81600c1c168501518253600182019150603f8160061c168501518253600182019150603f8116850151825360018201915050612eff565b600389510660018114612f745760028114612f8457612f8f565b613d3d60f01b6002830352612f8f565b603d60f81b60018303525b50505050508093505050505b919050565b6000612fab82612b99565b612fea576040517f08c379a0000000000000000000000000000000000000000000000000000000008152600401612fe190615a45565b60405180910390fd5b6000612ff5836116ee565b90508073ffffffffffffffffffffffffffffffffffffffff168473ffffffffffffffffffffffffffffffffffffffff16148061306457508373ffffffffffffffffffffffffffffffffffffffff1661304c84610c39565b73ffffffffffffffffffffffffffffffffffffffff16145b806130755750613074818561275a565b5b91505092915050565b8273ffffffffffffffffffffffffffffffffffffffff1661309e826116ee565b73ffffffffffffffffffffffffffffffffffffffff16146130f4576040517f08c379a00000000000000000000000000000000000000000000000000000000081526004016130eb90615ad7565b60405180910390fd5b600073ffffffffffffffffffffffffffffffffffffffff168273ffffffffffffffffffffffffffffffffffffffff161415613164576040517f08c379a000000000000000000000000000000000000000000000000000000000815260040161315b90615b69565b60405180910390fd5b61316f838383613549565b61317a600082612c0d565b6001600360008573ffffffffffffffffffffffffffffffffffffffff1673ffffffffffffffffffffffffffffffffffffffff16815260200190815260200160002060008282546131ca919061544c565b925050819055506001600360008473ffffffffffffffffffffffffffffffffffffffff1673ffffffffffffffffffffffffffffffffffffffff168152602001908152602001600020600082825461322191906152d0565b92505081905550816002600083815260200190815260200160002060006101000a81548173ffffffffffffffffffffffffffffffffffffffff021916908373ffffffffffffffffffffffffffffffffffffffff160217905550808273ffffffffffffffffffffffffffffffffffffffff168473ffffffffffffffffffffffffffffffffffffffff167fddf252ad1be2c89b69c2b068fc378daa952ba7f163c4a11628f55a4df523b3ef60405160405180910390a4505050565b6000600190505b828111613310576132fd8482846132f891906152d0565b61365d565b808061330890615959565b9150506132e1565b50505050565b8173ffffffffffffffffffffffffffffffffffffffff168373ffffffffffffffffffffffffffffffffffffffff161415613385576040517f08c379a000000000000000000000000000000000000000000000000000000000815260040161337c90615bd5565b60405180910390fd5b80600560008573ffffffffffffffffffffffffffffffffffffffff1673ffffffffffffffffffffffffffffffffffffffff16815260200190815260200160002060008473ffffffffffffffffffffffffffffffffffffffff1673ffffffffffffffffffffffffffffffffffffffff16815260200190815260200160002060006101000a81548160ff0219169083151502179055508173ffffffffffffffffffffffffffffffffffffffff168373ffffffffffffffffffffffffffffffffffffffff167f17307eab39ab6107e8899845ad3d59bd9653f200f220920489ca2b5937696c31836040516134769190613eb0565b60405180910390a3505050565b61348e84848461307e565b61349a8484848461367b565b6134d9576040517f08c379a00000000000000000000000000000000000000000000000000000000081526004016134d090615c67565b60405180910390fd5b50505050565b60007f01ffc9a7000000000000000000000000000000000000000000000000000000007bffffffffffffffffffffffffffffffffffffffffffffffffffffffff1916827bffffffffffffffffffffffffffffffffffffffffffffffffffffffff1916149050919050565b613554838383613812565b600073ffffffffffffffffffffffffffffffffffffffff168373ffffffffffffffffffffffffffffffffffffffff1614156135975761359281613817565b6135d6565b8173ffffffffffffffffffffffffffffffffffffffff168373ffffffffffffffffffffffffffffffffffffffff16146135d5576135d48382613860565b5b5b600073ffffffffffffffffffffffffffffffffffffffff168273ffffffffffffffffffffffffffffffffffffffff16141561361957613614816139cd565b613658565b8273ffffffffffffffffffffffffffffffffffffffff168273ffffffffffffffffffffffffffffffffffffffff1614613657576136568282613a9e565b5b5b505050565b613677828260405180602001604052806000815250613b1d565b5050565b600061369c8473ffffffffffffffffffffffffffffffffffffffff16613b78565b15613805578373ffffffffffffffffffffffffffffffffffffffff1663150b7a026136c5612c05565b8786866040518563ffffffff1660e01b81526004016136e79493929190615cdc565b602060405180830381600087803b15801561370157600080fd5b505af192505050801561373257506040513d601f19601f8201168201806040525081019061372f9190615d3d565b60015b6137b5573d8060008114613762576040519150601f19603f3d011682016040523d82523d6000602084013e613767565b606091505b506000815114156137ad576040517f08c379a00000000000000000000000000000000000000000000000000000000081526004016137a490615c67565b60405180910390fd5b805181602001fd5b63150b7a0260e01b7bffffffffffffffffffffffffffffffffffffffffffffffffffffffff1916817bffffffffffffffffffffffffffffffffffffffffffffffffffffffff19161491505061380a565b600190505b949350505050565b505050565b6008805490506009600083815260200190815260200160002081905550600881908060018154018082558091505060019003906000526020600020016000909190919091505550565b6000600161386d846117a0565b613877919061544c565b905060006007600084815260200190815260200160002054905081811461395c576000600660008673ffffffffffffffffffffffffffffffffffffffff1673ffffffffffffffffffffffffffffffffffffffff168152602001908152602001600020600084815260200190815260200160002054905080600660008773ffffffffffffffffffffffffffffffffffffffff1673ffffffffffffffffffffffffffffffffffffffff168152602001908152602001600020600084815260200190815260200160002081905550816007600083815260200190815260200160002081905550505b6007600084815260200190815260200160002060009055600660008573ffffffffffffffffffffffffffffffffffffffff1673ffffffffffffffffffffffffffffffffffffffff16815260200190815260200160002060008381526020019081526020016000206000905550505050565b600060016008805490506139e1919061544c565b9050600060096000848152602001908152602001600020549050600060088381548110613a1157613a10615512565b5b906000526020600020015490508060088381548110613a3357613a32615512565b5b906000526020600020018190555081600960008381526020019081526020016000208190555060096000858152602001908152602001600020600090556008805480613a8257613a81615d6a565b5b6001900381819060005260206000200160009055905550505050565b6000613aa9836117a0565b905081600660008573ffffffffffffffffffffffffffffffffffffffff1673ffffffffffffffffffffffffffffffffffffffff168152602001908152602001600020600083815260200190815260200160002081905550806007600084815260200190815260200160002081905550505050565b613b278383613b8b565b613b34600084848461367b565b613b73576040517f08c379a0000000000000000000000000000000000000000000000000000000008152600401613b6a90615c67565b60405180910390fd5b505050565b600080823b905060008111915050919050565b600073ffffffffffffffffffffffffffffffffffffffff168273ffffffffffffffffffffffffffffffffffffffff161415613bfb576040517f08c379a0000000000000000000000000000000000000000000000000000000008152600401613bf290615de5565b60405180910390fd5b613c0481612b99565b15613c44576040517f08c379a0000000000000000000000000000000000000000000000000000000008152600401613c3b90615e51565b60405180910390fd5b613c5060008383613549565b6001600360008473ffffffffffffffffffffffffffffffffffffffff1673ffffffffffffffffffffffffffffffffffffffff1681526020019081526020016000206000828254613ca091906152d0565b92505081905550816002600083815260200190815260200160002060006101000a81548173ffffffffffffffffffffffffffffffffffffffff021916908373ffffffffffffffffffffffffffffffffffffffff160217905550808273ffffffffffffffffffffffffffffffffffffffff16600073ffffffffffffffffffffffffffffffffffffffff167fddf252ad1be2c89b69c2b068fc378daa952ba7f163c4a11628f55a4df523b3ef60405160405180910390a45050565b828054613d6590614849565b90600052602060002090601f016020900481019282613d875760008555613dce565b82601f10613da057805160ff1916838001178555613dce565b82800160010185558215613dce579182015b82811115613dcd578251825591602001919060010190613db2565b5b509050613ddb9190613ddf565b5090565b5b80821115613df8576000816000905550600101613de0565b5090565b6000604051905090565b600080fd5b600080fd5b60007fffffffff0000000000000000000000000000000000000000000000000000000082169050919050565b613e4581613e10565b8114613e5057600080fd5b50565b600081359050613e6281613e3c565b92915050565b600060208284031215613e7e57613e7d613e06565b5b6000613e8c84828501613e53565b91505092915050565b60008115159050919050565b613eaa81613e95565b82525050565b6000602082019050613ec56000830184613ea1565b92915050565b6000819050919050565b613ede81613ecb565b8114613ee957600080fd5b50565b600081359050613efb81613ed5565b92915050565b600080fd5b6000601f19601f8301169050919050565b7f4e487b7100000000000000000000000000000000000000000000000000000000600052604160045260246000fd5b613f4f82613f06565b810181811067ffffffffffffffff82111715613f6e57613f6d613f17565b5b80604052505050565b6000613f81613dfc565b9050613f8d8282613f46565b919050565b600080fd5b600080fd5b600080fd5b600067ffffffffffffffff821115613fbc57613fbb613f17565b5b613fc582613f06565b9050602081019050919050565b82818337600083830152505050565b6000613ff4613fef84613fa1565b613f77565b9050828152602081018484840111156140105761400f613f9c565b5b61401b848285613fd2565b509392505050565b600082601f83011261403857614037613f97565b5b8135614048848260208601613fe1565b91505092915050565b600060a0828403121561406757614066613f01565b5b61407160a0613f77565b9050600082013567ffffffffffffffff81111561409157614090613f92565b5b61409d84828501614023565b600083015250602082013567ffffffffffffffff8111156140c1576140c0613f92565b5b6140cd84828501614023565b602083015250604082013567ffffffffffffffff8111156140f1576140f0613f92565b5b6140fd84828501614023565b604083015250606082013567ffffffffffffffff81111561412157614120613f92565b5b61412d84828501614023565b606083015250608082013567ffffffffffffffff81111561415157614150613f92565b5b61415d84828501614023565b60808301525092915050565b600080604083850312156141805761417f613e06565b5b600061418e85828601613eec565b925050602083013567ffffffffffffffff8111156141af576141ae613e0b565b5b6141bb85828601614051565b9150509250929050565b600081519050919050565b600082825260208201905092915050565b60005b838110156141ff5780820151818401526020810190506141e4565b8381111561420e576000848401525b50505050565b600061421f826141c5565b61422981856141d0565b93506142398185602086016141e1565b61424281613f06565b840191505092915050565b600060208201905081810360008301526142678184614214565b905092915050565b60006020828403121561428557614284613e06565b5b600061429384828501613eec565b91505092915050565b600073ffffffffffffffffffffffffffffffffffffffff82169050919050565b60006142c78261429c565b9050919050565b6142d7816142bc565b82525050565b60006020820190506142f260008301846142ce565b92915050565b614301816142bc565b811461430c57600080fd5b50565b60008135905061431e816142f8565b92915050565b6000806040838503121561433b5761433a613e06565b5b60006143498582860161430f565b925050602061435a85828601613eec565b9150509250929050565b61436d81613e95565b811461437857600080fd5b50565b60008135905061438a81614364565b92915050565b6000602082840312156143a6576143a5613e06565b5b60006143b48482850161437b565b91505092915050565b6143c681613ecb565b82525050565b60006020820190506143e160008301846143bd565b92915050565b600080600060608486031215614400576143ff613e06565b5b600061440e8682870161430f565b935050602061441f8682870161430f565b925050604061443086828701613eec565b9150509250925092565b6000602082840312156144505761444f613e06565b5b600061445e8482850161430f565b91505092915050565b60006020828403121561447d5761447c613e06565b5b600082013567ffffffffffffffff81111561449b5761449a613e0b565b5b6144a784828501614023565b91505092915050565b600080604083850312156144c7576144c6613e06565b5b60006144d58582860161430f565b925050602083013567ffffffffffffffff8111156144f6576144f5613e0b565b5b61450285828601614051565b9150509250929050565b6000806040838503121561452357614522613e06565b5b60006145318582860161430f565b92505060206145428582860161437b565b9150509250929050565b600060e0820190508181036000830152614566818a614214565b9050818103602083015261457a8189614214565b9050818103604083015261458e8188614214565b905081810360608301526145a28187614214565b905081810360808301526145b68186614214565b90506145c560a08301856143bd565b6145d260c08301846143bd565b98975050505050505050565b600067ffffffffffffffff8211156145f9576145f8613f17565b5b61460282613f06565b9050602081019050919050565b600061462261461d846145de565b613f77565b90508281526020810184848401111561463e5761463d613f9c565b5b614649848285613fd2565b509392505050565b600082601f83011261466657614665613f97565b5b813561467684826020860161460f565b91505092915050565b6000806000806080858703121561469957614698613e06565b5b60006146a78782880161430f565b94505060206146b88782880161430f565b93505060406146c987828801613eec565b925050606085013567ffffffffffffffff8111156146ea576146e9613e0b565b5b6146f687828801614651565b91505092959194509250565b6000806040838503121561471957614718613e06565b5b60006147278582860161430f565b92505060206147388582860161430f565b9150509250929050565b7f556e617574686f72697a65640000000000000000000000000000000000000000600082015250565b6000614778600c836141d0565b915061478382614742565b602082019050919050565b600060208201905081810360008301526147a78161476b565b9050919050565b7f4c6573732066756e647300000000000000000000000000000000000000000000600082015250565b60006147e4600a836141d0565b91506147ef826147ae565b602082019050919050565b60006020820190508181036000830152614813816147d7565b9050919050565b7f4e487b7100000000000000000000000000000000000000000000000000000000600052602260045260246000fd5b6000600282049050600182168061486157607f821691505b602082108114156148755761487461481a565b5b50919050565b7f4552433732313a20617070726f76656420717565727920666f72206e6f6e657860008201527f697374656e7420746f6b656e0000000000000000000000000000000000000000602082015250565b60006148d7602c836141d0565b91506148e28261487b565b604082019050919050565b60006020820190508181036000830152614906816148ca565b9050919050565b7f4552433732313a20617070726f76616c20746f2063757272656e74206f776e6560008201527f7200000000000000000000000000000000000000000000000000000000000000602082015250565b60006149696021836141d0565b91506149748261490d565b604082019050919050565b600060208201905081810360008301526149988161495c565b9050919050565b7f4552433732313a20617070726f76652063616c6c6572206973206e6f74206f7760008201527f6e6572206e6f7220617070726f76656420666f7220616c6c0000000000000000602082015250565b60006149fb6038836141d0565b9150614a068261499f565b604082019050919050565b60006020820190508181036000830152614a2a816149ee565b9050919050565b600081905092915050565b7f4d656e6461626c65732023000000000000000000000000000000000000000000600082015250565b6000614a72600b83614a31565b9150614a7d82614a3c565b600b82019050919050565b6000614a93826141c5565b614a9d8185614a31565b9350614aad8185602086016141e1565b80840191505092915050565b6000614ac482614a65565b9150614ad08284614a88565b915081905092915050565b60008190508160005260206000209050919050565b60008154614afd81614849565b614b078186614a31565b94506001821660008114614b225760018114614b3357614b66565b60ff19831686528186019350614b66565b614b3c85614adb565b60005b83811015614b5e57815481890152600182019150602081019050614b3f565b838801955050505b50505092915050565b7f2300000000000000000000000000000000000000000000000000000000000000600082015250565b6000614ba5600183614a31565b9150614bb082614b6f565b600182019050919050565b6000614bc78285614af0565b9150614bd282614b98565b9150614bde8284614a88565b91508190509392505050565b7f7b226e616d65223a220000000000000000000000000000000000000000000000600082015250565b6000614c20600983614a31565b9150614c2b82614bea565b600982019050919050565b7f222c2261747472696275746573223a205b7b2274726169745f74797065223a2260008201527f43617465676f7279222c2276616c7565223a2200000000000000000000000000602082015250565b6000614c92603383614a31565b9150614c9d82614c36565b603382019050919050565b7f227d2c7b2274726169745f74797065223a2245787072657373696f6e73222c2260008201527f76616c7565223a00000000000000000000000000000000000000000000000000602082015250565b6000614d04602783614a31565b9150614d0f82614ca8565b602782019050919050565b7f2c226d61785f76616c7565223a00000000000000000000000000000000000000600082015250565b6000614d50600d83614a31565b9150614d5b82614d1a565b600d82019050919050565b7f7d00000000000000000000000000000000000000000000000000000000000000600082015250565b6000614d9c600183614a31565b9150614da782614d66565b600182019050919050565b7f5d00000000000000000000000000000000000000000000000000000000000000600082015250565b6000614de8600183614a31565b9150614df382614db2565b600182019050919050565b7f2c20226465736372697074696f6e223a22000000000000000000000000000000600082015250565b6000614e34601183614a31565b9150614e3f82614dfe565b601182019050919050565b7f222c2022696d616765223a220000000000000000000000000000000000000000600082015250565b6000614e80600c83614a31565b9150614e8b82614e4a565b600c82019050919050565b7f222c2022616e696d6174696f6e5f75726c223a22000000000000000000000000600082015250565b6000614ecc601483614a31565b9150614ed782614e96565b601482019050919050565b7f227d000000000000000000000000000000000000000000000000000000000000600082015250565b6000614f18600283614a31565b9150614f2382614ee2565b600282019050919050565b6000614f3982614c13565b9150614f45828a614a88565b9150614f5082614c85565b9150614f5c8289614af0565b9150614f6782614cf7565b9150614f738288614a88565b9150614f7e82614d43565b9150614f8a8287614a88565b9150614f9582614d8f565b9150614fa082614ddb565b9150614fab82614e27565b9150614fb78286614af0565b9150614fc282614e73565b9150614fce8285614a88565b9150614fd982614ebf565b9150614fe58284614a88565b9150614ff082614f0b565b915081905098975050505050505050565b7f646174613a6170706c69636174696f6e2f6a736f6e3b6261736536342c000000600082015250565b6000615037601d83614a31565b915061504282615001565b601d82019050919050565b60006150588261502a565b91506150648284614a88565b915081905092915050565b6000815461507c81614849565b61508681866141d0565b945060018216600081146150a157600181146150b3576150e6565b60ff19831686526020860193506150e6565b6150bc85614adb565b60005b838110156150de578154818901526001820191506020810190506150bf565b808801955050505b50505092915050565b60006020820190508181036000830152615109818461506f565b905092915050565b7f4552433732313a207472616e736665722063616c6c6572206973206e6f74206f60008201527f776e6572206e6f7220617070726f766564000000000000000000000000000000602082015250565b600061516d6031836141d0565b915061517882615111565b604082019050919050565b6000602082019050818103600083015261519c81615160565b9050919050565b7f455243373231456e756d657261626c653a206f776e657220696e646578206f7560008201527f74206f6620626f756e6473000000000000000000000000000000000000000000602082015250565b60006151ff602b836141d0565b915061520a826151a3565b604082019050919050565b6000602082019050818103600083015261522e816151f2565b9050919050565b7f4e6f204d656e6461626c65730000000000000000000000000000000000000000600082015250565b600061526b600c836141d0565b915061527682615235565b602082019050919050565b6000602082019050818103600083015261529a8161525e565b9050919050565b7f4e487b7100000000000000000000000000000000000000000000000000000000600052601160045260246000fd5b60006152db82613ecb565b91506152e683613ecb565b9250827fffffffffffffffffffffffffffffffffffffffffffffffffffffffffffffffff0382111561531b5761531a6152a1565b5b828201905092915050565b600061533182613ecb565b915061533c83613ecb565b9250817fffffffffffffffffffffffffffffffffffffffffffffffffffffffffffffffff0483118215151615615375576153746152a1565b5b828202905092915050565b7f4e487b7100000000000000000000000000000000000000000000000000000000600052601260045260246000fd5b60006153ba82613ecb565b91506153c583613ecb565b9250826153d5576153d4615380565b5b828204905092915050565b7f416c726561647920657870726573736564000000000000000000000000000000600082015250565b60006154166011836141d0565b9150615421826153e0565b602082019050919050565b6000602082019050818103600083015261544581615409565b9050919050565b600061545782613ecb565b915061546283613ecb565b925082821015615475576154746152a1565b5b828203905092915050565b7f455243373231456e756d657261626c653a20676c6f62616c20696e646578206f60008201527f7574206f6620626f756e64730000000000000000000000000000000000000000602082015250565b60006154dc602c836141d0565b91506154e782615480565b604082019050919050565b6000602082019050818103600083015261550b816154cf565b9050919050565b7f4e487b7100000000000000000000000000000000000000000000000000000000600052603260045260246000fd5b7f4552433732313a206f776e657220717565727920666f72206e6f6e657869737460008201527f656e7420746f6b656e0000000000000000000000000000000000000000000000602082015250565b600061559d6029836141d0565b91506155a882615541565b604082019050919050565b600060208201905081810360008301526155cc81615590565b9050919050565b7f4552433732313a2062616c616e636520717565727920666f7220746865207a6560008201527f726f206164647265737300000000000000000000000000000000000000000000602082015250565b600061562f602a836141d0565b915061563a826155d3565b604082019050919050565b6000602082019050818103600083015261565e81615622565b9050919050565b7f4d696e7420616d6f756e74203e20300000000000000000000000000000000000600082015250565b600061569b600f836141d0565b91506156a682615665565b602082019050919050565b600060208201905081810360008301526156ca8161568e565b9050919050565b7f536f6c64206f7574210000000000000000000000000000000000000000000000600082015250565b60006157076009836141d0565b9150615712826156d1565b602082019050919050565b60006020820190508181036000830152615736816156fa565b9050919050565b7f53616c6520697320706175736564000000000000000000000000000000000000600082015250565b6000615773600e836141d0565b915061577e8261573d565b602082019050919050565b600060208201905081810360008301526157a281615766565b9050919050565b7f496e73756666696369656e742066756e64730000000000000000000000000000600082015250565b60006157df6012836141d0565b91506157ea826157a9565b602082019050919050565b6000602082019050818103600083015261580e816157d2565b9050919050565b7f53616c6520506175736564000000000000000000000000000000000000000000600082015250565b600061584b600b836141d0565b915061585682615815565b602082019050919050565b6000602082019050818103600083015261587a8161583e565b9050919050565b50565b60006158916000836141d0565b915061589c82615881565b600082019050919050565b600060208201905081810360008301526158c081615884565b9050919050565b7f4552433732314d657461646174613a2055524920717565727920666f72206e6f60008201527f6e6578697374656e7420746f6b656e0000000000000000000000000000000000602082015250565b6000615923602f836141d0565b915061592e826158c7565b604082019050919050565b6000602082019050818103600083015261595281615916565b9050919050565b600061596482613ecb565b91507fffffffffffffffffffffffffffffffffffffffffffffffffffffffffffffffff821415615997576159966152a1565b5b600182019050919050565b60006159ad82613ecb565b91506159b883613ecb565b9250826159c8576159c7615380565b5b828206905092915050565b7f4552433732313a206f70657261746f7220717565727920666f72206e6f6e657860008201527f697374656e7420746f6b656e0000000000000000000000000000000000000000602082015250565b6000615a2f602c836141d0565b9150615a3a826159d3565b604082019050919050565b60006020820190508181036000830152615a5e81615a22565b9050919050565b7f4552433732313a207472616e73666572206f6620746f6b656e2074686174206960008201527f73206e6f74206f776e0000000000000000000000000000000000000000000000602082015250565b6000615ac16029836141d0565b9150615acc82615a65565b604082019050919050565b60006020820190508181036000830152615af081615ab4565b9050919050565b7f4552433732313a207472616e7366657220746f20746865207a65726f2061646460008201527f7265737300000000000000000000000000000000000000000000000000000000602082015250565b6000615b536024836141d0565b9150615b5e82615af7565b604082019050919050565b60006020820190508181036000830152615b8281615b46565b9050919050565b7f4552433732313a20617070726f766520746f2063616c6c657200000000000000600082015250565b6000615bbf6019836141d0565b9150615bca82615b89565b602082019050919050565b60006020820190508181036000830152615bee81615bb2565b9050919050565b7f4552433732313a207472616e7366657220746f206e6f6e20455243373231526560008201527f63656976657220696d706c656d656e7465720000000000000000000000000000602082015250565b6000615c516032836141d0565b9150615c5c82615bf5565b604082019050919050565b60006020820190508181036000830152615c8081615c44565b9050919050565b600081519050919050565b600082825260208201905092915050565b6000615cae82615c87565b615cb88185615c92565b9350615cc88185602086016141e1565b615cd181613f06565b840191505092915050565b6000608082019050615cf160008301876142ce565b615cfe60208301866142ce565b615d0b60408301856143bd565b8181036060830152615d1d8184615ca3565b905095945050505050565b600081519050615d3781613e3c565b92915050565b600060208284031215615d5357615d52613e06565b5b6000615d6184828501615d28565b91505092915050565b7f4e487b7100000000000000000000000000000000000000000000000000000000600052603160045260246000fd5b7f4552433732313a206d696e7420746f20746865207a65726f2061646472657373600082015250565b6000615dcf6020836141d0565b9150615dda82615d99565b602082019050919050565b60006020820190508181036000830152615dfe81615dc2565b9050919050565b7f4552433732313a20746f6b656e20616c7265616479206d696e74656400000000600082015250565b6000615e3b601c836141d0565b9150615e4682615e05565b602082019050919050565b60006020820190508181036000830152615e6a81615e2e565b905091905056fe4142434445464748494a4b4c4d4e4f505152535455565758595a6162636465666768696a6b6c6d6e6f707172737475767778797a303132333435363738392b2fa2646970667358221220d2b18ad07e7ecc87d7e14373ec0bbe4304f6cc77ca6369ae53d819a317943a9c64736f6c63430008090033",
  "immutableReferences": {},
  "source": "// SPDX-License-Identifier: MIT\r\n// Written by @0xmend\r\npragma solidity ^0.8.9;\r\nimport \"@openzeppelin/contracts/token/ERC721/extensions/ERC721Enumerable.sol\";\r\nimport \"@openzeppelin/contracts/utils/Strings.sol\";\r\nimport \"base64-sol/base64.sol\";\r\ncontract Mendables is ERC721Enumerable {\r\n    using Strings for uint256;\r\n    uint256 public maxSupply = 1337;\r\n    uint256 public baseCost = 0.03 ether;\r\n    uint256 public updateCost = 0.01 ether;\r\n    uint256 public maxMintsInOne = 5;\r\n    bool public salePaused = true;\r\n    string public uiURI;\r\n    string public defaultImageURI;\r\n    address public owner;\r\n    string public contractMetadata;\r\n    string public osdescription;\r\n    struct Mendable {\r\n        string imageURI;\r\n        string caption;\r\n        string category;\r\n        string referenceURI;\r\n        string referenceName;\r\n        mapping(address => uint256) expressed;\r\n        uint256 expressions;\r\n        uint256 edits;\r\n    }\r\n    struct MendableInput {\r\n        string imageURI;\r\n        string caption;\r\n        string category;\r\n        string referenceURI;\r\n        string referenceName;\r\n    }\r\n    mapping(uint256 => Mendable) public mendables;\r\n    constructor(string memory _contractMetadata, string memory _defaultImageURI, string memory _uiURI, string memory _desc) \r\n    ERC721(\"Mendables\", \"MEND\") {\r\n        owner = msg.sender;\r\n        contractMetadata = _contractMetadata;\r\n        defaultImageURI = _defaultImageURI;\r\n        uiURI = _uiURI;\r\n        osdescription = _desc;\r\n    }\r\n    function express(uint256 tokenId) external {\r\n        uint256 balance = balanceOf(msg.sender);\r\n        require(balance > 0, \"No Mendables\");\r\n        uint256 edits = mendables[tokenId].edits + 1;\r\n        uint256 mendableVotes = balance * edits;\r\n        uint256 expressionsMade = mendables[tokenId].expressed[msg.sender];\r\n        uint256 pastVotes = expressionsMade / edits;\r\n        require(expressionsMade != mendableVotes, \"Already expressed\");\r\n        mendables[tokenId].expressed[msg.sender] = mendableVotes;\r\n        if(mendables[tokenId].expressions >= pastVotes){\r\n            mendables[tokenId].expressions = mendables[tokenId].expressions - pastVotes + balance;\r\n        } else {\r\n            mendables[tokenId].expressions += balance;\r\n        }\r\n    }\r\n    function expressed(uint256 tokenId) public view returns(bool) {\r\n        uint256 balance = balanceOf(msg.sender);\r\n        if(balance > 0){\r\n            uint256 mendableVotes = balance * (mendables[tokenId].edits + 1);\r\n            uint256 expressionsMade = mendables[tokenId].expressed[msg.sender];\r\n            return(expressionsMade == mendableVotes);\r\n        } \r\n        return false;\r\n    }\r\n    function _updateMendable(uint256 id, MendableInput memory m, uint256 mode) internal returns (uint256){\r\n        require(bytes(m.imageURI).length<75, '');\r\n        require(bytes(m.caption).length<281, '');\r\n        require(bytes(m.category).length<17, '');\r\n        require(bytes(m.referenceURI).length<75, '');\r\n        require(bytes(m.referenceName).length<33, '');\r\n        mendables[id].caption = m.caption;\r\n        mendables[id].category = m.category;\r\n        mendables[id].imageURI = m.imageURI;\r\n        mendables[id].referenceName = m.referenceName;\r\n        mendables[id].referenceURI = m.referenceURI;\r\n        mendables[id].expressions = 0;\r\n        mendables[id].edits = (mode == 0) ? 0 : mendables[id].edits + 1;\r\n        return id;\r\n    }    \r\n    function _mintMendable(address to, uint256 amount, uint256 supply) internal {\r\n        for (uint256 i = 1; i <= amount; i++) {\r\n            _safeMint(to, supply + i);\r\n        }\r\n    }\r\n    function mint(uint256 _mintAmount) external payable {\r\n        uint256 mintCost = baseCost;\r\n        if (msg.sender == owner) {\r\n            mintCost = 0;\r\n        } else {\r\n            require(!salePaused, \"Sale Paused\");\r\n            require(_mintAmount <= maxMintsInOne, \"\");\r\n        }\r\n        require(_mintAmount > 0, \"\");\r\n        uint256 supply = totalSupply();\r\n        require(supply + _mintAmount <= maxSupply, \"Sold out!\");\r\n        require(msg.value >= mintCost * _mintAmount, \"Insufficient funds\");\r\n        _mintMendable(msg.sender, _mintAmount, supply);\r\n    }\r\n    function personalizeMint(address to, MendableInput memory mend) external payable {\r\n        uint256 mintCost = baseCost;\r\n        if (msg.sender == owner) {\r\n            mintCost = 0;\r\n        } else {\r\n            require(!salePaused, \"Sale is paused\");\r\n        }\r\n        uint256 supply = totalSupply();\r\n        require(supply + 1 <= maxSupply, \"Sold out!\");\r\n        require(msg.value >= mintCost, \"Insufficient funds\");\r\n        _mintMendable(to, 1, supply);\r\n        _updateMendable(supply + 1, mend, 0);\r\n    }\r\n    function airdrop(address to, uint256 _mintAmount) external  {\r\n        require(msg.sender == owner, \"Unauthorized\");\r\n        require(_mintAmount > 0, \"Mint amount > 0\");\r\n        uint256 supply = totalSupply();\r\n        require(supply + _mintAmount <= maxSupply, \"Sold out!\");\r\n        _mintMendable(to, _mintAmount, supply);\r\n    }\r\n    function updateMendable(uint256 id, MendableInput memory mend) external payable {\r\n        require(ownerOf(id)==msg.sender || msg.sender == owner, \"Unauthorized\");\r\n        require(msg.value >= updateCost, \"Less funds\");\r\n        _updateMendable(id, mend, 1);\r\n    }\r\n    function genTokenURI(uint256 tokenId) public view returns (string memory) {\r\n        string memory image = bytes(mendables[tokenId].imageURI).length == 0 ? defaultImageURI : mendables[tokenId].imageURI;\r\n        uint256 expressions = mendables[tokenId].expressions;\r\n        return string(abi.encodePacked(\"data:application/json;base64,\",Base64.encode(bytes(abi.encodePacked('{\"name\":\"',string(abi.encodePacked(\"Mendables #\", Strings.toString(tokenId))),'\",\"attributes\": [{\"trait_type\":\"Category\",\"value\":\"',mendables[tokenId].category,'\"},{\"trait_type\":\"Expressions\",\"value\":',Strings.toString(expressions),',\"max_value\":',Strings.toString(maxSupply), '}',']',', \"description\":\"',osdescription,'\", \"image\":\"',image,'\", \"animation_url\":\"',string(abi.encodePacked(uiURI, \"#\", Strings.toString(tokenId))),'\"}')))));\r\n    }\r\n    string erm = \"\";\r\n    function tokenURI(uint256 tokenId) public view virtual override returns (string memory) {\r\n        require(_exists(tokenId), \"ERC721Metadata: URI query for nonexistent token\");\r\n        return genTokenURI(tokenId);   \r\n    }\r\n    function contractURI() public view returns (string memory) {\r\n        return contractMetadata;\r\n    }\r\n    function pauseSale(bool _state) external {\r\n        require(msg.sender == owner, erm);\r\n        salePaused = _state;\r\n    }\r\n    function setDefaultImage(string memory _uri) external {\r\n        require(msg.sender == owner, erm);\r\n        defaultImageURI = _uri;\r\n    }\r\n    function setInterfaceURI(string memory _uri) external {\r\n        require(msg.sender == owner, erm);\r\n        uiURI = _uri;\r\n    }\r\n    function setContractURI(string memory _uri) external {\r\n        require(msg.sender == owner, erm);\r\n        contractMetadata = _uri;\r\n    }\r\n    function setDescription(string memory _d) external {\r\n        require(msg.sender == owner, erm);\r\n        osdescription = _d;\r\n    }\r\n    function setBaseCost(uint256 _newCost) external {\r\n        require(msg.sender == owner, erm);\r\n        baseCost = _newCost;\r\n    }\r\n    function setUpdateCost(uint256 _newCost) external {\r\n        require(msg.sender == owner, erm);\r\n        updateCost = _newCost;\r\n    }\r\n    function withdraw() external {\r\n        require(msg.sender == owner, erm);\r\n        payable(owner).transfer(address(this).balance);\r\n    }\r\n}",
  "sourcePath": "C:\\Users\\aakash\\Documents\\Development\\mendables-legal\\contracts\\Mendables.sol",
  "compiler": {
    "name": "solc",
    "version": "0.8.9+commit.e5eed63a.Emscripten.clang"
  },
  "schemaVersion": "3.4.3",
  "updatedAt": "2021-12-22T05:00:14.752Z",
  "networkType": "ethereum",
  "devdoc": {
    "kind": "dev",
    "methods": {
      "approve(address,uint256)": {
        "details": "See {IERC721-approve}."
      },
      "balanceOf(address)": {
        "details": "See {IERC721-balanceOf}."
      },
      "getApproved(uint256)": {
        "details": "See {IERC721-getApproved}."
      },
      "isApprovedForAll(address,address)": {
        "details": "See {IERC721-isApprovedForAll}."
      },
      "name()": {
        "details": "See {IERC721Metadata-name}."
      },
      "ownerOf(uint256)": {
        "details": "See {IERC721-ownerOf}."
      },
      "safeTransferFrom(address,address,uint256)": {
        "details": "See {IERC721-safeTransferFrom}."
      },
      "safeTransferFrom(address,address,uint256,bytes)": {
        "details": "See {IERC721-safeTransferFrom}."
      },
      "setApprovalForAll(address,bool)": {
        "details": "See {IERC721-setApprovalForAll}."
      },
      "supportsInterface(bytes4)": {
        "details": "See {IERC165-supportsInterface}."
      },
      "symbol()": {
        "details": "See {IERC721Metadata-symbol}."
      },
      "tokenByIndex(uint256)": {
        "details": "See {IERC721Enumerable-tokenByIndex}."
      },
      "tokenOfOwnerByIndex(address,uint256)": {
        "details": "See {IERC721Enumerable-tokenOfOwnerByIndex}."
      },
      "tokenURI(uint256)": {
        "details": "See {IERC721Metadata-tokenURI}."
      },
      "totalSupply()": {
        "details": "See {IERC721Enumerable-totalSupply}."
      },
      "transferFrom(address,address,uint256)": {
        "details": "See {IERC721-transferFrom}."
      }
    },
    "version": 1
  },
  "userdoc": {
    "kind": "user",
    "methods": {},
    "version": 1
  }
}